:100F2A000A128A11E12F3630A0003630A100413072
:100F3A00A200A20B9E2FA10B9C2FA00B9A2F080098
:100F4A00031783168801031383128501031383167B
:100F5A008501080003138312FC308500080003137F
:100F6A00831260308500080003138312DA3085008B
:100F7A00080003138312F23085000800031383125A
:100F8A0066308500080003138312B6308500080016
:100F9A0003138312BE308500080003138312E03066
:100FAA008500080003138312FE308500080003132E
:100FBA008312E63085000800A527AF279827A527C2
:100FCA00B4279827A527B9279827A527BE279827A2
:100FDA00A527C3279827A527C8279827A527CD2758
:100FEA009827A527D2279827A527D7279827A5275F
:060FFA00DC279827A52763
:04400E00C418FF3F94
:00000001FF
